S016000041737369676E6D656E745F3030312E7372656305
S11300000C942A020C9447020C9447020C94470265
S11300100C9447020C9447020C9447020C94470238
S11300200C9447020C9447020C9447020C94470228
S11300300C9447020C9447020C9447020C94470218
S11300400C9447020C9447020C9447020C94470208
S11300500C944702FF03F603DA03AC036F03250392
S1130060D00274021402B40158010301B9007C00E7
S11300704E003200290032004E007C00B90003011A
S11300805801B40114027402D00225036F03AC03B7
S1130090DA03F603FF03DA036F03D00214025801F4
S11300A0B9004E0029004E00B90058011402D002D4
S11300B06F03DA03FF03DA036F03D002140258015B
S11300C0B9004E0029004E00B90058011402D002B4
S11300D06F03DA03FF03AC03D002B401B9003200AA
S11300E04E00030114022503DA03F6036F037402BE
S11300F058017C0029007C00580174026F03F60348
S1130100DA032503140203014E003200B900B401DE
S1130110D002AC03FF036F031402B9002900B90035
S113012014026F03FF036F031402B9002900B9001E
S113013014026F03FF036F031402B9002900B9000E
S113014014026F03FF036F031402B9002900B900FE
S113015014026F03FF03250358013200B90074022F
S1130160DA03AC0314027C004E00B4016F03F603FF
S1130170D002030129000301D002F6036F03B40186
S11301804E007C001402AC03DA037402B90032009E
S113019058012503FF03D002B9004E001402DA030C
S11301A06F035801290058016F03DA0314024E004B
S11301B0B900D002FF03D002B9004E001402DA03E2
S11301C06F035801290058016F03DA0314024E002B
S11301D0B900D002FF0374024E0003016F03AC03A5
S11301E0580132001402F603D0027C00B900250342
S11301F0DA03B4012900B401DA032503B9007C0051
S1130200D002F603140232005801AC036F03030159
S11302104E007402FF03140229001402FF031402A7
S113022029001402FF03140229001402FF0314021C
S113023029001402FF03140229001402FF0314020C
S113024029001402FF03140229001402FF031402FC
S113025029001402FF03B4014E0025036F037C0040
S11302605801F60314023200D002AC03B9000301B2
S1130270DA03740229007402DA030301B900AC033F
S1130280D00232001402F60358017C006F032503E8
S11302904E00B401FF035801B900DA0314024E0002
S11302A06F03D0022900D0026F034E001402DA0358
S11302B0B9005801FF035801B900DA0314024E00D3
S11302C06F03D0022900D0026F034E001402DA0338
S11302D0B9005801FF0303015801F603B900B40142
S11302E0DA037C001402AC034E0074026F03320084
S11302F0D002250329002503D00232006F037402C3
S11303004E00AC0314027C00DA03B401B900F60316
S113031058010301FF03B90014026F0329006F039E
S11303201402B900FF03B90014026F0329006F031C
S11303301402B900FF03B90014026F0329006F030C
S11303401402B900FF03B90014026F0329006F03FC
S11303501402B900FF037C00D0027402B900F60352
S11303604E00250314020301DA0332006F03B401C3
S11303705801AC032900AC035801B4016F033200E7
S1130380DA030301140225034E00F603B9007402D4
S1130390D0027C00FF034E006F0358011402D00208
S11303A0B900DA032900DA03B900D00214025801B3
S11303B06F034E00FF034E006F0358011402D00276
S11303C0B900DA032900DA03B900D0021402580193
S11303D06F034E00FF033200DA037C006F03030156
S11303E0D002B4011402740258012503B900AC030D
S11303F04E00F6032900F6034E00AC03B9002503B2
S1130400580174021402B401D00203016F037C008A
S1130410DA033200FF032900FF032900FF03290048
S1130420FF032900FF032900FF032900FF0329001C
S1130430FF032900FF032900FF032900FF0329000C
S1130440FF032900FF032900FF032900FF032900FC
S1130450FF03290011241FBECFE5D4E0DEBFCDBFCA
S113046010E0A0E6B0E0EEEFF7E102C005900D92D7
S1130470A039B107D9F720E0A0E9B0E001C01D928E
S1130480A63EB207E1F70E94DB040C94FD0B0C942A
S1130490000082B38F70806882BB9298939A85E043
S11304A08A95F1F7000093988FE193E00197F1F7B3
S11304B000C0000082B38F7082BB939A95E09A9536
S11304C0F1F7000093988FE39FE10197F1F700C0E3
S11304D00000089592B39F70282F207F922B92BB27
S11304E09298939A35E03A95F1F700009398EFE1EA
S11304F0F3E03197F1F700C0000022B32F70F0E170
S11305008F9FC0011124822B82BB939A35E03A95C8
S1130510F1F7000093988FE39FE10197F1F700C092
S11305200000089592B39F70282F207F922B92BBD6
S1130530929A939A35E03A95F1F700009398EFE197
S1130540F3E03197F1F700C0000022B32F70F0E11F
S11305508F9FC0011124822B82BB939A35E03A9578
S1130560F1F7000093988FE39FE10197F1F700C042
S1130570000008958CEF81BB2FEF89EF90E02150AC
S113058080409040E1F700C0000082B38F7082BBCE
S11305909298939A25E02A95F1F7000093988FE1B9
S11305A093E00197F1F700C0000082B38F7080627E
S11305B082BB939A95E09A95F1F7000093988FE3A4
S11305C09FE10197F1F700C0000082B38F70806251
S11305D082BB9298939A95E09A95F1F700009398CC
S11305E08FE193E00197F1F700C0000082B38F70B0
S11305F0806882BB939A95E09A95F1F700009398EE
S11306008FE39FE10197F1F700C0000082B38F7080
S113061082BB9298939A95E09A95F1F7000093988B
S11306208FE193E00197F1F700C0000082B38F706F
S1130630806C82BB939A95E09A95F1F700009398A9
S11306408FE39FE10197F1F700C0000082B38F7040
S113065082BB9298939A95E09A95F1F7000093984B
S11306608FE193E00197F1F700C0000082B38F702F
S1130670806682BB939A95E09A95F1F7000093986F
S11306808FE39FE10197F1F700C0000082B38F7000
S113069082BB9298939A95E09A95F1F7000093980B
S11306A08FE193E00197F1F700C0000082B38F70EF
S11306B0806182BB939A95E09A95F1F70000939834
S11306C08FE39FE10197F1F700C000008FE39FE102
S11306D00197F1F700C0000008952F923F924F92C6
S11306E05F926F927F928F929F92AF92BF92CF92BE
S11306F0DF92EF92FF920F931F93CF93DF93CDB7C7
S1130700DEB728970FB6F894DEBF0FBECDBF87B112
S1130710887F87B9369A3699FECF64B175B180E087
S113072090E00E94B90720E030E44CE950E40E94D4
S1130730700820E030E040E05EE30E9470086B0146
S11307407C010E9483078B01072E000C880B990BF8
S11307500E94BB079B01AC01C701B6010E949F0622
S11307604B015C010115110509F41DC19E012F5FA8
S11307703F4F38872F83F901612C712C4AE0242ED6
S1130780312C01C0320123018FEF481A580AC801E5
S1130790B1010E94DD08805D81938B01672B91F785
S11307A06114710499F0EF81F885E40DF51D80E082
S11307B090E0D9014C9152915D939D014083019643
S11307C0A301481B590B841795079CF392012F5FD3
S11307D03F4FEF81F885E40DF51D6F8078848EE23C
S11307E08083620E731E20E030E040E251E4C501D4
S11307F0B4010E9470080E948307CB01009709F49A
S1130800CCC0F301530100E010E02AE0822E912CC9
S113081001C0890198012F5F3F4FB4010E94DD0898
S1130820805DD5018D935D01CB01009791F7011592
S1130830110581F0D301A20FB31F80E090E0408145
S11308405E9151934C930196A801481B590B841750
S11308509507ACF3F301E20FF31F10822F81388563
S11308603F932F9381E690E09F938F931F9280E1B3
S11308708F9382E990E09F938F930E940509809162
S113088092000FB6F894DEBF0FBECDBF882361F08F
S113089090E05D9BFECF8CB99F5FE92FF0E0EE56B0
S11308A0FF4F80818111F5CF9DE080E05D9BFECFFD
S11308B09CB98F5FE82FF0E0E158FF4F90819111D0
S11308C0F5CF82B38F70806C82BB9298939AB5E017
S11308D0BA95F1F700009398EFE1F3E03197F1F75F
S11308E000C0000082B38F7082BB939AF5E0FA9542
S11308F0F1F7000093988FE39FE10197F1F700C0AF
S1130900000090919200992369F1E3E9F0E082B349
S11309108F70292F207F822B82BB929A939AA5E015
S1130920AA95F1F700009398AFE1B3E01197F1F7BE
S113093000C0000082B3282F2F70B0E19B9FC0013C
S11309401124822B82BB939A25E02A95F1F70000AB
S113095093988FE39FE10197F1F700C00000919114
S11309609111D5CFC701B60128960FB6F894DEBF12
S11309700FBECDBFDF91CF911F910F91FF90EF90EC
S1130980DF90CF90BF90AF909F908F907F906F90AB
S11309905F904F903F902F90089580E3F301808300
S11309A021E030E057CFFE013196F887EF8321E054
S11309B030E03F0114CFCF93DF9300D000D000D0BC
S11309C0CDB7DEB78FEF84BB8CEF81BB12BA15BAFB
S11309D080E487B987E886B98FE99FE00197F1F74A
S11309E000C000000E94BA0281E00E946A02AFE3E4
S11309F0BFE11197F1F700C000000E94490281E8AD
S1130A000E946A02EDE6F0E0FB83EA8388E40E9438
S1130A109202AA81BB818D91BB83AA838111F7CFF6
S1130A20BFEFE3EDF0E3B150E040F040E1F700C088
S1130A3000008AB188618AB980B5866880BD87E67E
S1130A4089B910BC9AE080E05D9BFECF9CB98F5FB2
S1130A50E82FF0E0EE58FF4F90819111F5CF81E03F
S1130A600E946A028FE39FE10197F1F700C0000042
S1130A700E94490254E6252E312C0E946D0320E089
S1130A8030E040EA52E40E940C0787FD52C1A89A64
S1130A90A99887B1887F816087B9369A86B1E82F93
S1130AA0E07486FDFBCF84B195B18F3F934088F30A
S1130AB01092A200F0E087B1887F816087B9369AEE
S1130AC086B1982F907486FDFBCF24B135B1EE0F1B
S1130AD0FF1FEA55FF4F31832083BFE1E6E8F1E0D1
S1130AE0B150E040F040E1F700C00000E091A20006
S1130AF0EF5FE093A200E032E8F29C8321E02093D0
S1130B00600094E5A92E90E0B92E2FE1822E912C5D
S1130B1031E039831B821A8286EAC82E80E0D82EFF
S1130B208501E12CF12C0CC006971CF4BFEFEB1AE5
S1130B30FB0A0E5F1F4FE6EECE16E0E0DE0669F11B
S1130B40D6016D917D916D01F801259134913E831B
S1130B502D8380E090E00E94B9072B013C01AD8118
S1130B60BE81BD0180E090E00E94B9079B01AC0109
S1130B70C301B2010E94110720E030E048EC52E4C6
S1130B800E9470080E948307C101861B970B97FF80
S1130B90CBCF919581959109C7CFB701FF0C880BF5
S1130BA0990B0E94BB0720E030E040EC51E40E9426
S1130BB06B081816ACF0AA81BB811196BB83AA837B
S1130BC089818F5F9401205E3F4FB0E4AB0EB11C6E
S1130BD0E981EC83813109F4A2C0490189839CCF66
S1130BE0F0E2F093A3009092A5008092A4002C81DF
S1130BF02093A2008A819B81019690939100809317
S1130C0090009F938F9382E890E09F938F931F921D
S1130C10B0E1BF93E2E9F0E0FF93EF930E9405098E
S1130C20809192000FB6F894DEBF0FBECDBF88232B
S1130C3061F090E05D9BFECF8CB99F5FE92FF0E0FF
S1130C40EE56FF4F80818111F5CF9DE080E05D9BE2
S1130C50FECF9CB98F5FE82FF0E0E158FF4F908101
S1130C609111F5CF1092600082B38F70806882BBBF
S1130C709298939AB5E0BA95F1F700009398EFE152
S1130C80F3E03197F1F700C0000082B38F7082BBAC
S1130C90939AF5E0FA95F1F7000093988FE39FE1BA
S1130CA00197F1F700C0000090919200992371F12F
S1130CB0E3E9F0E082B3282F2F70892F807F822B05
S1130CC082BB929A939AA5E0AA95F1F700009398B3
S1130CD0AFE1B3E01197F1F700C0000082B3282F11
S1130CE02F70B0E19B9FC0011124822B82BB939A89
S1130CF025E02A95F1F7000093988FE39FE101978F
S1130D00F1F700C0000091919111D4CF809190002F
S1130D1090919100059784F0A898A99AAECEF0E23C
S1130D20F093A3009092A5008092A400E093A20007
S1130D30A4CEA898A99AADCEA89AA9989ECE5058A8
S1130D40BB27AA270E94B7060C9431080E942308E7
S1130D5038F00E942A0820F039F49F3F19F426F451
S1130D600C9420080EF4E095E7FB0C941A08E92F84
S1130D700E94420858F3BA1762077307840795075D
S1130D8020F079F4A6F50C9464080EF4E0950B2E8B
S1130D90BA2FA02D0B01B90190010C01CA01A001C9
S1130DA01124FF27591B99F0593F50F4503E68F124
S1130DB01A16F040A22F232F342F4427585FF3CF65
S1130DC0469537952795A795F0405395C9F77EF436
S1130DD01F16BA0B620B730B840BBAF09150A1F07F
S1130DE0FF0FBB1F661F771F881FC2F70EC0BA0F05
S1130DF0621F731F841F48F4879577956795B7958D
S1130E00F7959E3F08F0B0CF9395880F08F0992787
S1130E10EE0F9795879508950E94F60708F481E0F0
S1130E2008950E9425070C9431080E942A0858F05E
S1130E300E94230840F029F45F3F29F00C941A081B
S1130E4051110C9465080C9420080E94420868F320
S1130E509923B1F3552391F3951B550BBB27AA276F
S1130E6062177307840738F09F5F5F4F220F331FA9
S1130E70441FAA1FA9F335D00E2E3AF0E0E832D071
S1130E8091505040E695001CCAF72BD0FE2F29D074
S1130E90660F771F881FBB1F261737074807AB0746
S1130EA0B0E809F0BB0B802DBF01FF2793585F4FBB
S1130EB03AF09E3F510578F00C941A080C9465089A
S1130EC05F3FE4F3983ED4F3869577956795B7959D
S1130ED0F7959F5FC9F7880F911D9695879597F9A8
S1130EE00895E1E0660F771F881FBB1F6217730721
S1130EF08407BA0720F0621B730B840BBA0BEE1F36
S1130F0088F7E09508950E948A076894B1110C94BB
S1130F10650808950E944A0888F09F5798F0B92FF1
S1130F209927B751B0F0E1F0660F771F881F991F1A
S1130F301AF0BA95C9F714C0B13091F00E94640850
S1130F40B1E008950C946408672F782F8827B85F60
S1130F5039F0B93FCCF3869577956795B395D9F772
S1130F603EF490958095709561957F4F8F4F9F4F7C
S1130F700895E89409C097FB3EF490958095709588
S1130F8061957F4F8F4F9F4F9923A9F0F92F96E9D1
S1130F90BB279395F695879577956795B795F11146
S1130FA0F8CFFAF4BB0F11F460FF1BC06F5F7F4FE3
S1130FB08F4F9F4F16C0882311F096E911C07723F5
S1130FC021F09EE8872F762F05C0662371F096E8FE
S1130FD0862F70E060E02AF09A95660F771F881FCD
S1130FE0DAF7880F9695879597F90895990F000871
S1130FF0550FAA0BE0E8FEEF16161706E807F907E7
S1131000C0F012161306E407F50798F0621B730B81
S1131010840B950B39F40A2661F0232B242B252B02
S113102021F408950A2609F4A140A6958FEF811DA5
S1131030811D089597F99F6780E870E060E0089546
S11310409FEF80EC089500240A94161617061806DC
S11310500906089500240A941216130614060506B8
S11310600895092E0394000C11F4882352F0BB0F49
S113107040F4BF2B11F460FF04C06F5F7F4F8F4FAC
S11310809F4F089557FD9058440F551F59F05F3FE7
S113109071F04795880F97FB991F61F09F3F79F096
S11310A087950895121613061406551FF2CF469518
S11310B0F1DF08C0161617061806991FF1CF86959A
S11310C07105610508940895E894BB27662777277E
S11310D0CB0197F908950E94F60708F48FEF08955D
S11310E00E9483080C9431080E94230838F00E945F
S11310F02A0820F0952311F00C941A080C94200867
S113110011240C9465080E94420870F3959FC1F362
S1131110950F50E0551F629FF001729FBB27F00DA1
S1131120B11D639FAA27F00DB11DAA1F649F6627F6
S1131130B00DA11D661F829F2227B00DA11D621F45
S1131140739FB00DA11D621F839FA00D611D221FFF
S1131150749F3327A00D611D231F849F600D211DE3
S1131160822F762F6A2F11249F5750409AF0F1F066
S113117088234AF0EE0FFF1FBB1F661F771F881FCF
S113118091505040A9F79E3F510580F00C941A08E5
S11311900C9465085F3FE4F3983ED4F38695779505
S11311A06795B795F795E7959F5FC1F7FE2B880F75
S11311B0911D9695879597F9089597FB072E16F438
S11311C0009407D077FD09D00E94F10807FC05D0F0
S11311D03EF4909581959F4F0895709561957F4F4A
S11311E00895AA1BBB1B51E107C0AA1FBB1FA6176A
S11311F0B70710F0A61BB70B881F991F5A95A9F7BC
S113120080959095BC01CD010895AEE0B0E0EBE08F
S1131210F9E00C94D40B0D891E898F89988D26E0F2
S11312202C831A83098397FF02C080E090E801971A
S11312309E838D83AE01455E5F4F698D7A8DCE01AD
S113124001960E9435094D815E8157FD0AC02F81A8
S11312503885421753070CF49A01F801E20FF31F83
S113126010822E96E4E00C94F00BABE0B0E0EBE3DC
S1131270F9E00C94C60B6C017B018A01FC01178216
S11312801682838181FFCCC1CE0101963C01F60117
S11312909381F70193FD859193FF81917F018823C9
S11312A009F4BAC1853239F493FD859193FF819194
S11312B07F01853229F4B60190E00E942C0BE7CF20
S11312C0912C212C312CFFE1F315D8F08B3279F0DD
S11312D038F4803279F08332A1F4232D20611DC0CB
S11312E08D3261F0803369F4232D216016C0832D83
S11312F08260382EE32DE4603E2E2AC0F32DF86080
S11313001DC037FC2DC020ED280F2A3040F08E324E
S1131310B9F436FC81C1232D2064322E19C036FE67
S113132006C08AE0989E200D1124922E11C0EAE096
S11313302E9E200D1124222EF32DF0623F2E08C084
S11313408C3621F4832D8068382E02C0883641F40F
S1131350F70193FD859193FF81917F018111B3CFB3
S1131360982F9F7D9554933028F40C5F1F4F9FE373
S113137099830DC0833631F0833771F0833509F0DA
S113138059C021C0F801808189830E5F1F4F8824D2
S11313908394912C530113C02801F2E04F0E511C89
S11313A0F801A080B18036FE03C0692D70E002C050
S11313B06FEF7FEFC5010E94210B4C018201F32DD9
S11313C0FF773F2E16C0280122E0420E511CF8017F
S11313D0A080B18036FE03C0692D70E002C06FEFBB
S11313E07FEFC5010E94160B4C01F32DF0683F2ED0
S11313F0820133FC1BC0822D90E088169906B0F45C
S1131400B60180E290E00E942C0B2A94F4CFF501FF
S113141037FC859137FE81915F01B60190E00E940F
S11314202C0B21102A9421E0821A91088114910432
S113143071F7E8C0843611F0893641F5F80137FEBA
S113144007C060817181828193810C5F1F4F08C046
S113145060817181072E000C880B990B0E5F1F4F62
S1131460F32DFF763F2E97FF09C0909580957095D8
S113147061957F4F8F4F9F4FF0683F2E2AE030E0F9
S1131480A3010E94680B882E861845C0853731F465
S1131490232D2F7EB22E2AE030E025C0932D997F94
S11314A0B92E8F36C1F018F4883579F0B5C080377D
S11314B019F0883721F0B0C0E92FE061BE2EB4FEE8
S11314C00DC0FB2DF460BF2E09C034FE0AC0292FC5
S11314D02660B22E06C028E030E005C020E130E0EE
S11314E002C020E132E0F801B7FE07C060817181DB
S11314F0828193810C5F1F4F06C06081718180E0FF
S113150090E00E5F1F4FA3010E94680B882E86187F
S1131510FB2DFF773F2E36FE0DC0232D2E7FA22EEE
S1131520891458F434FE0BC032FC09C0832D8E7E1E
S1131530A82E05C0B82CA32C03C0B82C01C0B92C0C
S1131540A4FE0FC0FE01E80DF11D8081803321F45B
S11315509A2D997EA92E09C0A2FE06C0B394B39415
S113156004C08A2D867809F0B394A3FC11C0A0FEB0
S113157006C0B21488F4280C922C9B180EC0B21426
S113158060F4B60180E290E00E942C0BB394F7CF94
S1131590B21418F42B1802C0982C212CA4FE10C0ED
S11315A0B60180E390E00E942C0BA2FE17C0A1FCC0
S11315B003C088E790E002C088E590E0B6010CC063
S11315C08A2D867859F0A1FE02C08BE201C080E228
S11315D0A7FC8DE2B60190E00E942C0B891438F42C
S11315E0B60180E390E00E942C0B9A94F7CF8A9482
S11315F0F301E80DF11D8081B60190E00E942C0BEF
S11316008110F5CF222009F442CEB60180E290E0A9
S11316100E942C0B2A94F6CFF6018681978102C092
S11316208FEF9FEF2B96E2E10C94E20BFC01059007
S1131630615070400110D8F7809590958E0F9F1FD0
S11316400895FC016150704001900110D8F7809515
S113165090958E0F9F1F08950F931F93CF93DF9341
S1131660FB01238121FD03C08FEF9FEF2CC022FFDC
S113167016C046815781248135814217530744F4AB
S1131680A081B1819D012F5F3F4F318320838C93D3
S1131690268137812F5F3F4F3783268314C08B0108
S11316A0EC01FB010084F185E02D0995892BE1F61D
S11316B0D80116968D919C911797019617969C9335
S11316C08E931697CE01DF91CF911F910F910895BC
S11316D0FA01AA27283051F1203181F1E8946F935F
S11316E06E7F6E5F7F4F8F4F9F4FAF4FB1E03ED005
S11316F0B4E03CD0670F781F891F9A1FA11D680FA3
S1131700791F8A1F911DA11D6A0F711D811D911DD5
S1131710A11D20D009F468943F912AE0269F11244A
S11317203019305D3193DEF6CF010895462F4770AE
S1131730405D4193B3E00FD0C9F7F6CF462F4F7009
S1131740405D4A3318F0495D31FD4052419302D067
S1131750A9F7EACFB4E0A69597958795779567950D
S1131760BA95C9F700976105710508959B01AC010D
S11317700A2E06945795479537952795BA95C9F734
S1131780620F731F841F951FA01D08952F923F920F
S11317904F925F926F927F928F929F92AF92BF927D
S11317A0CF92DF92EF92FF920F931F93CF93DF9329
S11317B0CDB7DEB7CA1BDB0B0FB6F894DEBF0FBE86
S11317C0CDBF09942A88398848885F846E847D84D3
S11317D08C849B84AA84B984C884DF80EE80FD80D5
S11317E00C811B81AA81B981CE0FD11D0FB6F8944B
S11117F0DEBF0FBECDBFED010895F894FFCF0C
S11317FE0154656D703A20257320430048656C6C66
S113180E6F000A09204563686F2054657374200DB8
S113181E0A00467265713A202530346920487A00F0
S9030000FC
